:10000000504B0020B9730000619100006191000025
:100010006191000061910000619100006191000018
:100020006191000061910000619100006191000008
:1000300061910000619100006191000061910000F8
:1000400061910000619100006191000061910000E8
:1000500061910000619100006191000061910000D8
:1000600061910000619100006191000061910000C8
:1000700061910000619100006191000061910000B8
:1000800061910000619100006191000061910000A8
:100090006191000061910000619100006191000098
:1000A0006191000061910000619100006191000088
:1000B0006191000061910000619100006191000078
:1000C0006191000061910000619100006191000068
:1000D0006191000061910000619100006191000058
:1000E0006191000061910000619100006191000048
:1000F0006191000061910000619100006191000038
:1001000000B587B0744B01221A70744B00221A603C
:10011000724B00225A60724B00221A60704B002210
:100120005A60704B00221A606E4B00225A606E4B70
:1001300000221A606C4B00225A606C4B00221A603D
:100140006A4B00225A606A4B00221A8000230593F2
:100150000EE0684A059B002142F83310654A059B72
:10016000DB0013444FF6FF729A80059B0133059321
:10017000059B012BEDDD5E4B1B881BB29BB203F090
:10018000010304935B4A049B5B4942F83310584BCC
:100190001B8819B2574A049BDB0013440A469A8015
:1001A0008C220021544802F0FDFD514B1B881AB2ED
:1001B000514B9A81504B03229A764F4B4F4A1A610A
:1001C0004D4B4E4A5A614C4B06229A834C4B4D4A3A
:1001D0001A604B4B00225A60474B494AC3F88820AB
:1001E0003E4B03930399444802F00FFD424809F047
:1001F000DDF8394B02221A7001AA02AB11461846EB
:1002000009F03AF8029B019A1146184602F024F8C8
:10021000314B03221A703C4B002B01D000F0E8FC5C
:100220003A4B002B01D000F0DDFF394B002B01D001
:10023000AFF3008003F07DFF09F0A6F8264B0422FF
:100240001A702D4B9B8BDBB219462B4800F0EAFB52
:100250000346002B04DA40F2DA212E4808F0C4FBF2
:10026000254800F02DFC0346002B04DA40F2ED2176
:10027000284808F0B9FB204800F006FC0346002B94
:1002800004DA40F2F621234808F0AEFB1A4B9B68D3
:1002900001221A70022006F08CF80F4B05221A700A
:1002A00000F05FF80346002B04DA40F21D311948D4
:1002B00008F09AFB00F015F90346002B08D001F076
:1002C000DBFF0346002B03D100F006F901F0DEFF4F
:1002D00008F0D0FFEEE700BFCC430020C44300206D
:1002E000E8430020BC430020D0430020F44300201A
:1002F000F0430020D843002000010020010100004D
:100300008C010020381F0000F10B0000E5110000F7
:1003100000000000441F000000B585B009F031FE68
:1003200000230093094B4FF480526421084800F0E9
:1003300067F90390039B002B04DC40F20D11054884
:1003400008F052FB00BF05B05DF804FBCDA0000033
:10035000541F00005C1F000008B5FFF7DDFF00BF61
:1003600008BD08B5FFF7F8FF0023184608BD0000D8
:1003700000B589B00390029101924FF0FF330793CB
:10038000039B3F2B2BD8039B0693EFF3108372B68E
:10039000ADF81430BDF81430ADF81630029B002BC8
:1003A00006D1039808F0E8FC0F4B02930023019359
:1003B0000E49069B029A41F833200C4A069BDB004B
:1003C0001344019A5A60BDF81630ADF81230BDF8EA
:1003D000123013F0010F00D162B600230793079B80
:1003E000184609B05DF804FB39040000FC43002006
:1003F00000B585B001900091019B3F2B04D90C4BB7
:100400000393002302930AE00A4A019B52F8333017
:100410000393084A019BDB0013445B680293039B30
:10042000029A00990198984700BF05B05DF804FB57
:1004300039040000FC43002000B587B0039002910E
:100440000192EFF3108372B6ADF81630039B044AA5
:100450000449032002F03CFD4121034808F0C4FA9E
:100460009C1F0000701F0000841F000000B585B0B5
:100470001CE0EFF3108372B6ADF80430BDF8043021
:10048000ADF80E300D4802F082FB0290BDF80E3040
:10049000ADF80630BDF8063013F0010F00D162B69A
:1004A000029B002B02D0029801F0F8FE034B1B6860
:1004B000002BDED100BF05B05DF804FBF443002043
:1004C000044B1B68002B14BF01230023DBB218462A
:1004D000704700BFF443002008B5FFF7C7FF00BF17
:1004E00008BD08B5FFF7ECFF0346184608BD00003D
:1004F00000B58BB00590039202930B468DF8133034
:100500008C2001F0E7FE0890089B002B02D10C2301
:10051000099366E09DF813301946089800F082FAB6
:100520000790079B002B03DA079B5B42099352E07D
:10053000089800F03DFB0790079B002B03DA079B10
:100540005B42099347E0029B9DF8132019460898E7
:1005500008F0A8FE0790079B002B03DA079B5B427D
:10056000099338E09DF8133000930C9B224A0399BD
:10057000089800F0ADF90790079B002B03DA079B62
:100580005B42099327E00D9A0599089800F0B4F9A9
:10059000089800F079FA0790079B002B03DA079B75
:1005A0005B42099317E0089B9B89ADF81A300898C5
:1005B00000F0B0F90790079B002B09DA00F012FA5F
:1005C00003461B6809930D49089802F03DFB02E0C1
:1005D000BDF91A300CE09DF813301946089800F068
:1005E0003DFB00F0FFF90246099B13604FF0FF331B
:1005F00018460BB05DF804FB51090000D043002001
:1006000000B587B00590049103920293089B019373
:10061000029B0093039B049A00210598FFF768FF53
:100620000346184607B05DF804FB00B587B0059097
:10063000049103920293089B0193029B0093039BF6
:10064000049A02210598FFF753FF0346184607B0A6
:100650005DF804FB00B587B0019000F02BFB002390
:10066000049338E0214B1B881BB29BB201339BB231
:100670001AB21E4B114619801346ADF81630BDF95B
:100680001630002B05DC194B01221A800123ADF82E
:100690001630BDF8163003F001030393144A039B90
:1006A00052F83330002B13D11149039B019A41F8C2
:1006B00033200F4A039BDB001344BDF816209A80B9
:1006C000019BBDF816209A8100F020FB002309E071
:1006D000049B01330493049B012BC3DD00F016FB44
:1006E0004FF0FF33184607B05DF804FBF0430020DD
:1006F000D843002000B587B0039002910192009387
:100700000398FFF7A7FF0590059B002B34D1029BB0
:10071000DAB2039B1A76029BDAB2039B5A76039BEA
:10072000019A1A61009A039B5A619DF8203003F0E8
:1007300003038DF82030039B9B8B23F003039AB2B5
:10074000039B9A83039B9A8B9DF820309BB21343A3
:100750009AB2039B9A83039B00229A76039808F02F
:1007600025FE00F0A7FA0749039802F04EFA039B12
:1007700004229A7600F0CAFA059B184607B05DF885
:1007800004FB00BFD043002000B58BB00190009166
:100790004D4B0593059802F068FB0346013308931F
:1007A00000230793009B002B26D01EE0079B9B0095
:1007B000009A13441B68184602F057FB03460133A6
:1007C000089A13440893019B9B6A089A9A4202D3A1
:1007D0006FF0230374E0079B01330793079BB3F586
:1007E000807F02DD6FF006036AE0079B9B00009AA2
:1007F00013441B68002BD9D1079B02339B00049341
:100800000198049A089B1344194608F050FE03907F
:10081000039B002B04D140F235212C4808F0E4F86A
:10082000039B002B02D16FF00B0349E0039A049B5A
:1008300013440993039B099A1A60059802F015FB6B
:100840000346013302930599099802F0C1FA029B0D
:10085000099A134409930023069321E0069B013370
:100860009B00039A1344099A1A60069B9B00009A06
:1008700013441B68184602F0F8FA0346013302934A
:10088000069B9B00009A13441B681946099802F0C6
:100890009FFA029B099A13440993069B013306931E
:1008A000069A079B9A42D9DB079B01339B00039A68
:1008B000134400221A60019B039AC3F88820002386
:1008C00018460BB05DF804FBB01F0000BC1F000011
:1008D00000B587B005900491039202939DF82030F3
:1008E0000093029B039A04990598FFF703FF0346C0
:1008F000184607B05DF804FB00B585B0039002917F
:10090000019201990398FFF73FFF0346184605B08F
:100910005DF804FB00B585B00190EFF3108372B66B
:10092000ADF80A30BDF80A30ADF80E30019808F085
:10093000EBFDBDF80E30ADF80C30BDF80C3013F007
:10094000010F00D162B60023184605B05DF804FB24
:1009500000B585B0174B1B680293029B9B8B03F07D
:100960000303012B03D15721134808F03DF801235D
:10097000039309E0039B01330393039BB3F5807F4B
:1009800002DD012000F01AF8029BD3F88820039BB7
:100990009B0013441B68002BECD1029B5B69029AFD
:1009A000D2F888201146039898470190019800F0EA
:1009B00005F800BFC4430020D01F000000B585B07B
:1009C0000190074B1B680393019BDBB2019300224C
:1009D0000199039800F00FFA019808F0C1FC00BFDC
:1009E000C443002000B583B008F002FD034683F045
:1009F0000103DBB2002B0CD0084B1B680193019B59
:100A0000002B06D0019B9B7E032B02D1019B383328
:100A100000E0034B184603B05DF804FBC44300201C
:100A20009401002000B585B001900B468DF803308D
:100A3000019B002B03D0019B9B68002B03D0B621A8
:100A4000104807F0D1FF602001F044FC0390039BA5
:100A5000002B02D16FF00B0310E0019B039A9A6008
:100A600000230293029B002B07DA039801F016FC87
:100A7000019B00229A60029B00E00023184605B00B
:100A80005DF804FBE41F000000B585B00190019BF8
:100A9000002B03D0019B9B68002B04D140F2251151
:100AA000064807F0A1FF019B9B680393039B01226B
:100AB0005A700023184605B05DF804FBE41F0000DF
:100AC00000B585B00190019B9B680393039B002BAD
:100AD00003D15621144807F087FF039B04331846BF
:100AE00003F076FB0321114803F0FEFE0290029B07
:100AF000002B0CD10121002003F085FE02210020F3
:100B000003F081FE019800F011FA034607E0029B12
:100B1000002B02DD029803F055FE6FF01603184615
:100B200005B05DF804FB00BFFC1F00001C200000A6
:100B300000B587B001901C4B1B680493019B002BF0
:100B400007D0019B9B68002B03D0049B9B68002B64
:100B500003D16121154807F047FF049B9B680833C8
:100B60000393019B9B68083302930023059314E0D1
:100B7000059B1B01039A13449B68002B0AD0059B1D
:100B80001B01039AD018059B1B01029A13441946B6
:100B900003F05AFB059B01330593059B022BE7DD10
:100BA00000BF07B05DF804FBC44300202C20000008
:100BB00000B585B00190019B9B680393039B002BBC
:100BC00003D1D621094807F00FFF039B04331846D1
:100BD00003F0FEFA0198FFF7ABFF019800F0A6F9C9
:100BE0000346184605B05DF804FB00BF2C2000004A
:100BF00082B0002301930DE0094A019B094942F8A4
:100C00003310074A019BDB00134400225A60019B0A
:100C100001330193019B3F2BEEDD00BF02B0704713
:100C2000FC4300203904000084B00346ADF80630D0
:100C3000BDF8063003F001030393074A039B00212C
:100C400042F83310044A039BDB0013444FF6FF7253
:100C50009A8000BF04B07047D843002000B585B02B
:100C600001900B468DF8033000230393019B002B6A
:100C70001AD0019BB3F90C30002B05D0019BB3F9BE
:100C80000C301846FFF7D0FF019BDB6A002B05D024
:100C90009DF803301946019808F0F0FB019800F028
:100CA0001DF9019800F06CF9039B184605B05DF83A
:100CB00004FB000000B583B0124B1B680193019B3D
:100CC000002B19D008F094FB034683F00103DBB23C
:100CD000002B11D0019BB3F91E307E2B03DD9E212A
:100CE000094807F081FE019BB3F91E309BB2013326
:100CF0009BB21AB2019BDA830023184603B05DF859
:100D000004FB00BFC44300204C20000000B585B0A8
:100D10002B4B1B6803932A4B1B680393039B002BED
:100D200048D008F065FB034683F00103DBB2002BDB
:100D300040D0EFF3108372B6ADF80830BDF808303C
:100D4000ADF80A30039BB3F91E30002B08DD039B7E
:100D5000B3F91E309BB2013B9BB21AB2039BDA83FC
:100D6000039BB3F91E30002B1ADC039B0022DA83AD
:100D7000144B1B68002B01D008F046FB039B9B8B98
:100D800003F06003202B0BD1039B1B6A002B07D1C0
:100D90000B4B1B68039A9A4202D0039B14221A62DF
:100DA000BDF80A30ADF80630BDF8063013F0010F7B
:100DB00000D162B60023184605B05DF804FB00BF01
:100DC000C4430020E843002000B585B00190019B9A
:100DD0009B680393039B002B09D0039B5B78012B3B
:100DE00005D1019B9B683833184601F099FF00BF7D
:100DF00005B05DF804FB00B585B003900291134681
:100E00008DF80730039B9B8B03F48073002B17D165
:100E1000039800F019F89DF8073083F00103DBB266
:100E2000002B02D00398FFF7CFFF039800F056F88D
:100E3000039B9B8B43F480739AB2039B9A8300E0DD
:100E400000BF05B05DF804FB00B583B001900198C8
:100E500000F007F8019800F0C3F800BF03B05DF898
:100E600004FB00B585B00190EFF3108372B6ADF8C6
:100E70000C30BDF80C30ADF80E30019B5B6A002BD6
:100E80000CD0019B5B6A184600F0E6F8019B5B6A98
:100E9000184600F049F9019B00225A62BDF80E3055
:100EA000ADF80A30BDF80A3013F0010F00D162B678
:100EB00000BF05B05DF804FB00B583B00190019B55
:100EC0000433184603F09AF9019801F02DFE0198B9
:100ED00000F056F800BF03B05DF804FB00B585B024
:100EE0000190019B002B04D140F291110E4807F0B4
:100EF0007BFD019B9B680393039B002B10D0039BFE
:100F00005B78012B06D9039B5B78013BDAB2039B2C
:100F10005A7002E00398FFF7CFFF019B00229A600E
:100F200000BF05B05DF804FB6020000000B583B091
:100F30000190019B002B03D0019B9B68002B03D1E8
:100F400049210E4807F050FD019B9B68184601F0AF
:100F5000B7FD019A0121002003F00CFE019A062141
:100F6000012003F007FE019A0621022003F002FE91
:100F70000023184603B05DF804FB00BF7420000096
:100F800000B585B0019008F033FA0346002B04D178
:100F900001F072F90346002B17D0EFF3108372B6FD
:100FA000ADF80A30BDF80A30ADF80E300B490198A3
:100FB00001F0D2FDBDF80E30ADF80C30BDF80C30AC
:100FC00013F0010F00D162B604E0019801F066F958
:100FD00001F05CF900BF05B05DF804FBF4430020AC
:100FE00000B587B00190EFF3108372B6ADF80E3004
:100FF000BDF80E30ADF81630019B9B7E052B1AD143
:10100000019B5B6B0493049B002B04D0049B1B8807
:101010001BB2002B03DB63210E4807F0E5FC049BA9
:101020001B881BB29BB201339BB21AB2049B1A807D
:10103000019B00225A63BDF81630ADF80C30BDF8A4
:101040000C3013F0010F00D162B600BF07B05DF89D
:1010500004FB00BF9020000000B589B001906FF044
:1010600015030593EFF3108372B6ADF81030BDF899
:101070001030ADF81230019B002B42D0019B1B7B3E
:1010800003F00103002B3CD000230693244B1B6884
:10109000079304E0079B0693079B1B680793079B36
:1010A000002B03D0079A019B9A42F3D1079B002B98
:1010B00003D16E211B4807F097FC079B1B68002B90
:1010C00008D0079B1B689968079B9A68079B1B6859
:1010D0000A449A60069B002B04D01149069801F03F
:1010E00070FD02E00E4801F052FD019B00221A60E3
:1010F000019B1B7B23F00103DAB2019B1A730023CF
:101100000593BDF81230ADF80E30BDF80E3013F077
:10111000010F00D162B6059B184609B05DF804FBCB
:1011200008460020A820000000B585B00190019B72
:10113000002B03D15121284807F056FCEFF3108310
:1011400072B6ADF80C30BDF80C30ADF80E30019B26
:101150001B7B03F00103002B02D00198FFF77CFFFB
:10116000019B1B7B03F00203002B0DD0BDF80E305A
:10117000ADF80A30BDF80A3013F0010F00D162B6A5
:101180000198FFF7FDFE21E0019B1B7B03F00403A8
:10119000002B1BD11149019801F0DEFC104B1B887C
:1011A00001339AB20E4B1A800D4B1B88022B03D9C8
:1011B0008021094807F018FCBDF80E30ADF8083062
:1011C000BDF8083013F0010F00D162B600231846B5
:1011D00005B05DF804FB00BFBC200000FC4500200A
:1011E0000446002000B583B0124B0193124B00223D
:1011F0001A60114B00225A60104B00221A600F4BEC
:1012000000225A60002300930AE0019B03F11802B8
:1012100001920949184601F09FFC009B013300939D
:10122000009B012BF1DD064B02221A8000BF03B0A8
:101230005DF804FB98010020FC45002008460020D2
:101240000446002082B0084B1B680193019B9B68F9
:101250000093009B002B02D0009B043300E000238E
:10126000184602B0704700BFC443002000B585B0E7
:101270000190224B1B680293029BB3F91E30002B96
:1012800010DD029B1A7E019B1B7E9A420AD21C49EA
:10129000019800F039F8019B01229A7600238DF81D
:1012A0000F3024E01549019800F02EF80346002B7A
:1012B00017D0029BB3F91E30002B03D1019B1B6892
:1012C000002B03D170210F4807F08EFB019B0322F6
:1012D0009A76019B1B6802229A7601238DF80F30C3
:1012E00005E0019B02229A7600238DF80F309DF8CD
:1012F0000F30184605B05DF804FB00BFC443002062
:10130000E8430020D020000000B587B00190009194
:10131000019B1B7E8DF8123000238DF813309DF851
:101320001230002B03D15821304807F05DFB009BA1
:101330001B68059302E0059B1B680593059B002B2A
:1013400005D0059B1B7E9DF812209A42F3D9059B80
:10135000002B22D1009B5B680393039B002B0FD1D2
:10136000019B00221A60019B00225A60009B019A97
:101370001A60009B019A5A6001238DF813302EE009
:10138000019B00221A60019B039A5A60039B019AF9
:101390001A60009B019A5A6021E0059B5B680393E9
:1013A000039B002B0FD1019B059A1A60019B002221
:1013B0005A60059B019A5A60009B019A1A600123AA
:1013C0008DF813300BE0019B059A1A60019B039A7C
:1013D0005A60039B019A1A60059B019A5A609DF816
:1013E0001330184607B05DF804FB00BFEC20000086
:1013F00000B587B000238DF80F302E4B1B68049387
:101400002D4B1B68059345E0059B1B68029302E08A
:10141000049B1B680493049B002B05D0059B1A7E3C
:10142000049B1B7E9A42F3D9049B002B03D17F219E
:10143000224807F0D9FA049B5B680193019B002BBB
:1014400015D1059B049A1A60059B00225A60049BE3
:10145000059A5A60174A059B1360049B02229A76EC
:10146000059B03229A7601238DF80F300EE0059B31
:10147000049A1A60059B019A5A60019B059A1A60AA
:10148000049B059A5A60059B02229A76059B049359
:10149000029B0593059B002BB6D1074B00221A60D7
:1014A000054B00225A609DF80F30184607B05DF8D2
:1014B00004FB00BFC4430020E84300200C210000CF
:1014C00000B585B00190019B9B7E8DF80F309DF893
:1014D0000F30032B03D99DF80F30052B03D94D2175
:1014E000094807F081FA9DF80F30084A52F8333066
:1014F0001946019801F0A8FB019B00229A7600BFD3
:1015000005B05DF804FB00BF28210000081F0000A3
:10151000014B1B6818467047C443002082B00190FD
:10152000019B14221A6200BF02B0704700B585B05B
:101530000190094B1B680393039B9B8B03F0600393
:10154000202B04D100220121039800F04FFC00BFA2
:1015500005B05DF804FB00BFC443002008B50020BF
:10156000FFF7E4FF00BF08BD08B5054B002B01D015
:10157000AFF3008000F0A2FBFFF7F0FF00BF08BD53
:101580000000000000B583B00190019B002B09D042
:10159000019B1B881BB2002B02DB019B01221A80DE
:1015A000002306E0FFF71EFA0246162313604FF0F1
:1015B000FF33184603B05DF804FB000000B587B0A8
:1015C0000190394B1B6804934FF0FF330593019B47
:1015D000002B04D007F00CFF0346002B03D058214A
:1015E000324807F001FAEFF3108372B6ADF80C3011
:1015F000BDF80C30ADF80E30019B002B3FD0019BA5
:101600001B881BB2002B0EDD019B1B881BB29BB2FB
:10161000013B9BB21AB2019B1A80049B00225A63C1
:101620000023059330E0049B5B6B002B03D08B21E0
:101630001E4807F0D9F9019B1B881BB29BB2013BE6
:101640009BB21AB2019B1A80049B019A5A63FFF75E
:10165000C9F90246002313600521049808F0FAF83E
:10166000FFF7C0F903461B68042B0DD0FFF7BAF94A
:1016700003461B686E2B07D00023059304E0FFF799
:10168000B1F9024616231360BDF80E30ADF80A30EA
:10169000BDF80A3013F0010F00D162B6059B184661
:1016A00007B05DF804FB00BFC443002044210000E4
:1016B00000B587B00190264B1B6804934FF0FF33B1
:1016C0000593019B002B04D007F092FE0346002BEC
:1016D00003D057211F4807F087F9019B002B2CD01E
:1016E000EFF3108372B6ADF80C30BDF80C30ADF8E6
:1016F0000E30019B1B881BB2002B0EDD019B1B884B
:101700001BB29BB2013B9BB21AB2019B1A80049B95
:1017100000225A630023059304E0FFF763F90246B1
:101720000B231360BDF80E30ADF80A30BDF80A3057
:1017300013F0010F00D162B604E0FFF753F902463F
:1017400016231360059B184607B05DF804FB00BF25
:10175000C44300205C21000000B587B00190002345
:1017600005934FF0FF330493019B002B46D0EFF31A
:10177000108372B6ADF80C30BDF80C30ADF80E30F9
:10178000019B1B881BB247F6FF72934203D176215F
:101790001F4807F029F9019B1B881BB29BB201333C
:1017A0009BB21AB2019B1A80019B1B881BB2002BB3
:1017B00017DC184B1B68059302E0059B1B6805931B
:1017C000059B002B04D0059B5B6B019A9A42F4D1D8
:1017D000059B002B05D0059B00225A63059807F056
:1017E00093FE00230493BDF80E30ADF80A30BDF827
:1017F0000A3013F0010F00D162B604E0FFF7F2F8EF
:10180000024616231360049B184607B05DF804FBDC
:1018100074210000BC43002000B585B001900B4648
:10182000ADF80230019B002B03D0BDF90230002B34
:1018300003DA4C21214807F0D7F8FFF73BFAEFF322
:10184000108372B6ADF80C30BDF80C30ADF80E3028
:1018500010E00198FFF780FF0346002B03DA6621B2
:10186000164807F0C1F8BDF902309BB2013B9BB2AC
:10187000ADF80230019B1B881BB2002B03DABDF9C7
:101880000230002BE5DC019B1B881BB2002B03DB25
:10189000019BBDF802201A80BDF80E30ADF80A3069
:1018A000BDF80A3013F0010F00D162B6FFF72EFA2F
:1018B0000023184605B05DF804FB00BF8C21000032
:1018C00000B585B01B4B1B680393039800F006FA24
:1018D000184B1B680293029BB3F91E309BB2013375
:1018E0009BB21AB2029BDA83029B02229A760421EF
:1018F000039800F01FFA039BB3F90C30012118463E
:1019000000F02EF80190029B03229A76029BB3F915
:101910001E309BB2013B9BB21AB2029BDA83064B8C
:101920001B68002B01D0FFF763FD019B184605B033
:101930005DF804FBC4430020E843002082B0074B5D
:101940001B680193019B002B03D0019BB3F90C3062
:1019500000E00023184602B0704700BFC4430020D7
:1019600000B589B003460A46ADF8063013468DF837
:101970000530EFF3108372B6ADF80E30BDF80E30BF
:10198000ADF81E30BDF90630184600F00BFA06908F
:10199000069B002B0FD16FF00203049300BFBDF82C
:1019A0001E30ADF80A30BDF80A3013F0010F00D137
:1019B00062B6049B35E0069B9B7E032B03D0069BFF
:1019C0009B7E052B03D98721184807F00DF8069B4D
:1019D0009B7E1A46164B53F83230059305990698AC
:1019E00001F032F9069B00229A76BDF81E30ADF860
:1019F0000C30BDF80C3013F0010F00D162B69DF829
:101A000005301A4600210698FFF7F5F9069B9B8BD7
:101A1000DBB203F00303DBB219460698FFF71EF9A9
:101A20000346184609B05DF804FB00BFA42100007E
:101A3000081F000000B583B0264B1B689B68002B75
:101A400043DC39E0234801F0A2F80190214B1B68E8
:101A5000002B08D01F4B1B689968019B9A681D4B8F
:101A60001B680A449A60019B1B7B23F00103DAB2D6
:101A7000019B1A73019B5B7B012B0CD0022B12D0B4
:101A8000002B03D09421144806F0AEFF019B5B6845
:101A90000020984710E0019B5B68019A126911468B
:101AA0000120984708E0019B5B68019A1169019A3F
:101AB00052690220984700BF064B1B68002B04D0D8
:101AC000044B1B689B68002BBCDD00BF03B05DF8B6
:101AD00004FB00BF08460020BC21000008B400B58C
:101AE0008CB0039002910192039B002B05D00D9BBB
:101AF000022B02DC029B002B07DAFEF773FF024683
:101B0000162313604FF0FF33CFE0EFF3108372B66C
:101B1000ADF81630BDF81630ADF81E30039B1B7BB8
:101B200003F00103002B02D00398FFF795FA039B03
:101B3000019A5A600D9BDAB2039B5A730EAB049361
:101B4000002308930BE0049B1A1D04921968039B61
:101B5000089A043243F82210089B01330893089A2C
:101B60000D9B9A42EFDB08E0039B089A04320021A8
:101B700043F82210089B01330893089B012BF3DDE7
:101B8000029B002B02DC0123029308E0029B01333D
:101B90000293029B002B02DC029B013B0293464B0B
:101BA0001B68002B04D14449039800F0D5FF67E07F
:101BB00000230993404B1B680B930B9B0A9304E093
:101BC0000B9B0A930B9B1B680B930B9B9B68099ABF
:101BD00013440993099B002B0EDA0B9B1B68002B07
:101BE000EED109E00B9B0A930B9B1B680B930B9B9D
:101BF0009B68099A13440993099A029B9A4203DC51
:101C00000B9B1B68002BEDD1029A099B9A421CDAB0
:101C10000B9B9B68099AD31A029AD31A02930B9BC7
:101C20009A68029BD21A0B9B9A60234B1B680B9AF3
:101C30009A4204D12049039801F0A9F920E01E4AF4
:101C400003990A9801F0B7F91AE0029A099BD31A8E
:101C500002930B9B1B68002B04D11749039800F0DB
:101C60007BFF0DE00B9B1B680693069B9A68029B0B
:101C7000D21A069B9A60104A03990B9801F09BF9BF
:101C8000039B029A9A60039B1B7B43F00103DAB229
:101C9000039B1A73BDF81E30ADF81430BDF8143034
:101CA00013F0010F00D162B6002318460CB05DF8A6
:101CB00004EB01B0704700BF0846002008B5064B92
:101CC0001B68002B06D0044B1B689A68013A9A6087
:101CD000FFF7B0FE00BF08BD0846002000B585B084
:101CE000019000238DF80F30019B5B68002B0FD112
:101CF000019B1B680293029B002B03D15D210B48C3
:101D000006F072FE029B03229A7601238DF80F30B3
:101D10000749019800F098FF019B00229A769DF8F0
:101D20000F30184605B05DF804FB00BFCC21000061
:101D3000C443002000B585B001900B468DF80330F8
:101D40009DF80330032B03D99DF80330052B03D9ED
:101D50004E21124806F048FE9DF80330104A52F812
:101D6000333003939DF803300D4ADB0013441B7995
:101D700003F00103002B04D003990198FFF7C4FA84
:101D800003E00399019801F034F9019B9DF80320C9
:101D90009A7600BF05B05DF804FB00BFEC2100009F
:101DA000081F000084B00346ADF8063000230393FB
:101DB000BDF90630002B13DBBDF8063003F001033C
:101DC0000293094A029BDB001344B3F90430BDF9C6
:101DD00006209A4204D1044A029B52F833300393FE
:101DE000039B184604B07047D843002000B587B065
:101DF0000390029113468DF80730039B002B03D10B
:101E00007221204806F0F0FD039B1B6A1A46029BD4
:101E1000934228BF13460493039B1A6A049BD21A69
:101E2000039B1A62039B1B6A0593039B1B6A002B8F
:101E300022DC039BB3F91E30002B1DDC9DF807301C
:101E4000002B02D00123059316E0039B14221A6293
:101E5000039B1B6A0593039B1B68002B0CD0039B01
:101E60001B681A7E039B1B7E9A4205D3039B1B7E35
:101E70001946039807F058FD059B184607B05DF812
:101E800004FB00BF0822000000B583B0094B1B68AB
:101E90000193019B9B680093009B002B03D147217A
:101EA000054806F0A1FD009B3833184603B05DF8E5
:101EB00004FB00BFC44300202422000000B583B00F
:101EC0000E4B1B680193019B002B07D10C4B1B7819
:101ED000012B03D94F210B4806F086FD019B002BF7
:101EE00007D0019B1B68002B0CBF01230023DBB232
:101EF00000E00123184603B05DF804FBC443002052
:101F0000CC43002040220000000000000000000040
:101F1000E843002001000000C44300200500000049
:101F2000C443002005000000D04300200000000052
:101F3000BC4300200100000049646C6520546173BB
:101F40006B000000696E69742F6F735F7374617248
:101F5000742E6300696E697400000000696E697414
:101F60002F6F735F6272696E6775702E6300000079
:101F700025733A204552524F52206972713A2025FA
:101F8000640A00006972712F6972715F756E6578FD
:101F90007065637465646973722E63006972715F42
:101FA000756E65787065637465645F69737200004F
:101FB0003C6E6F6E616D653E000000007461736B76
:101FC0002F7461736B5F73657475702E630000000E
:101FD0007461736B2F7461736B5F73746172742EB1
:101FE0006300000067726F75702F67726F75705FA6
:101FF0006372656174652E630000000067726F751F
:10200000702F67726F75705F736574757069646C3B
:102010006566696C65732E63000000002F64657649
:102020002F636F6E736F6C650000000067726F75D1
:10203000702F67726F75705F7365747570746173FC
:102040006B66696C65732E630000000073636865DE
:10205000642F73636865645F6C6F636B2E6300004D
:1020600067726F75702F67726F75705F6C656176E0
:10207000652E630067726F75702F67726F75705F82
:10208000736574757073747265616D732E6300008F
:1020900073656D6170686F72652F73656D5F7265D2
:1020A000636F7665722E630077646F672F77645F66
:1020B00063616E63656C2E630000000077646F6778
:1020C0002F77645F64656C6574652E6300000000A3
:1020D00073636865642F73636865645F61646472C9
:1020E00065616479746F72756E2E630073636865E1
:1020F000642F73636865645F6164647072696F7292
:102100006974697A65642E63000000007363686512
:10211000642F73636865645F6D6572676570656E73
:1021200064696E672E63000073636865642F736370
:102130006865645F72656D6F7665626C6F636B6511
:10214000642E630073656D6170686F72652F7365CF
:102150006D5F776169742E630000000073656D61C7
:1021600070686F72652F73656D5F747279776169DE
:10217000742E630073656D6170686F72652F73658F
:102180006D5F706F73742E630000000073656D6186
:1021900070686F72652F73656D5F72657365742EFD
:1021A000630000007461736B2F7461736B5F7465FF
:1021B000726D696E6174652E6300000077646F67ED
:1021C0002F77645F73746172742E63007363686544
:1021D000642F73636865645F72656D6F76657265A1
:1021E000616479746F72756E2E6300007363686545
:1021F000642F73636865645F616464626C6F636BB2
:1022000065642E630000000073636865642F736368
:102210006865645F726F756E64726F62696E2E635B
:102220000000000073636865642F73636865645F12
:1022300067657473747265616D732E6300000000CE
:1022400073636865642F73636865645F69646C6554
:102250007461736B2E63000000B583B00190009130
:10226000009A0199034800F08CF800BF03B05DF8B4
:1022700004FB00BF1046002008B5034800F0D4F866
:102280000346184608BD00BF1046002008B50248A6
:1022900000F02AF900BF08BD1046002000B583B049
:1022A00001900199034800F0AFF900BF03B05DF859
:1022B00004FB00BF1046002000B583B001900199D7
:1022C000034800F02BFA0346184603B05DF804FB00
:1022D0001046002000B583B001900199034800F03A
:1022E000A1FA0346184603B05DF804FB104600202F
:1022F00000B589B0039002910192029B0F3323F045
:102300000F030793029A019B134423F00F030693D4
:10231000069A079BD31A0193039B9A68019B1A4460
:10232000039B9A60079A039BDA60039BDB68082291
:102330001A60039BDB684FF000425A60079B08332A
:102340000593019BA3F11002059B1A60059B0822CF
:102350005A60069B083B1A46039B1A61039B1B6944
:1023600008221A60059B1A68039B1B6942F0004211
:102370005A600599039800F0EDF800BF09B05DF8C8
:1023800004FB00B587B0039002910192039B0022E9
:102390009A60039B14334FF498720021184600F0A2
:1023A00001FD012305931CE0059B013B059A0132C9
:1023B000120103990A44043203991B010B441C3394
:1023C0001A60059B013B01331B01039A13441A1D3C
:1023D0000399059B1B010B4420331A60059B0133B5
:1023E0000593059B122BDFDD039800F009F8019A95
:1023F00002990398FFF77CFF00BF07B05DF804FB6C
:1024000000B583B00190019B01220021184600F025
:1024100041FC019B4FF6FF725A80019B00225A60DB
:1024200000BF03B05DF804FB00B585B00190FFF775
:1024300085FA0346ADF80E30019BB3F90230BDF9C1
:102440000E209A4206D1019B5B685A1C019B5A6080
:10245000002311E0019B1846FFF72AF90346002BE1
:1024600002D04FF0FF3307E0019BBDF80E205A80E9
:10247000019B01225A600023184605B05DF804FB59
:1024800000B585B00190FFF759FA0346ADF80E305C
:10249000019BB3F90230BDF90E209A420FD1019B86
:1024A0005B685A1C019B5A6017E0FEF79BFA0346D3
:1024B0001B68042B03D0A9210A4806F095FA019B5A
:1024C0001846FFF77BF80346002BEED1019BBDF8C1
:1024D0000E205A80019B01225A6000BF05B05DF8B2
:1024E00004FB00BF5028000000B585B00190FFF745
:1024F00025FA0346ADF80E30019BB3F90230BDF961
:102500000E209A4203D0C621114806F06DFA019BB5
:102510005B68012B05DD019B5B685A1E019B5A60BD
:1025200011E0019B4FF6FF725A80019B00225A6016
:10253000019B1846FFF710F90346002B03D0DA2160
:10254000034806F051FA00BF05B05DF804FB00BF78
:102550005028000000B587B001900091009B1B68D7
:10256000184600F035F80390039B01331B01019AD4
:10257000134404330493019A039B1B0113441C333B
:102580001B68059304E0059B0493059B9B680593DA
:10259000059B002B09D0059B1B68002B05D0059BD4
:1025A0001A68009B1B689A42EDD3049B009A9A60BC
:1025B000009B049ADA60009B059A9A60059B002BA9
:1025C00002D0059B009ADA6000BF07B05DF804FBFB
:1025D00084B0019000230393019BB3F5800F01D3D6
:1025E00012230DE0019B1B09019305E0039B0133BE
:1025F0000393019B5B080193019B012BF6D8039B7E
:10260000184604B07047000000B587B001900091F3
:10261000009B002B7BD00198FFF732FF009B083B0B
:102620000593059B5B6823F00042059B5A60059B60
:102630001B68059A13440493049B5B68002B2CDBF6
:10264000049B1B68049A13440393049BDB68002BD0
:1026500003D16821304806F0C7F9049BDB68049A6F
:1026600092689A60049B9B68002B04D0049B9B6833
:10267000049AD268DA60059B1A68049B1B681A44A6
:10268000059B1A60059B1A68039B5B6803F0004377
:102690001A43039B5A60039B0493059B5B685B4250
:1026A000059A13440293029B5B68002B27DB029B75
:1026B000DB68002B03D18121174806F095F9029BB6
:1026C000DB68029A92689A60029B9B68002B04D098
:1026D000029B9B68029AD268DA60029B1A68059B8B
:1026E0001B681A44029B1A60029B1A68049B5B6871
:1026F00003F000431A43049B5A60029B059305991B
:102700000198FFF727FF0198FFF7EEFE00E000BFFA
:1027100007B05DF804FB00BF6428000000B589B075
:102720000190009100230693009B002B01D1002310
:1027300071E0009B173323F00F0300930198FFF71C
:102740009FFE009BB3F5800F02D31223059303E095
:102750000098FFF73DFF0590019A059B1B0113446C
:102760001C331B68079302E0079B9B680793079B3A
:10277000002B04D0079B1B68009A9A42F4D8079B51
:10278000002B44D0079BDB68002B03D18421244815
:1027900006F02AF9079BDB68079A92689A60079B04
:1027A0009B68002B04D0079B9B68079AD268DA606D
:1027B000079B1A68009BD31A0493049B0F2B1DD907
:1027C000079B1B68079A13440393079A009B1344C3
:1027D0000293029B049A1A60029B009A5A60079B1C
:1027E000009A1A60039B5B6803F00042049B1A4343
:1027F000039B5A6002990198FFF7ACFE079B5B6848
:1028000043F00042079B5A60079B083306930198E8
:10281000FFF76AFE069B184609B05DF804FB00BF8F
:102820007828000000B585B00190009100990198CA
:10283000FFF774FF0390039B002B04D0009A002144
:10284000039800F0AFFA039B184605B05DF804FB4F
:102850006D6D5F686561702F6D6D5F73656D2E6363
:10286000000000006D6D5F686561702F6D6D5F66C3
:102870007265652E630000006D6D5F686561702F85
:102880006D6D5F6D616C6C6F632E63000000000006
:1028900018DF88DFCD06CD767CD30CD3D982D91250
:1028A0002C00050A0F14191E232800BFAFF3008067
:1028B00000B501B400F004F801BC00BDAFF3008026
:1028C00000B5042A60DB00F0030E61F3830E7A4B3F
:1028D000D3E80EF0AFF30080AFF30080AFF30080D9
:1028E00011F8013B00F8013BA2F1010211F8013B94
:1028F00000F8013BA2F1010211F8013B00F8013B95
:10290000A2F101022DE9F01F282A07DBB1E8F81F28
:10291000A0E8F81FA2F12802282AF7DADFF89CE1E4
:102920004FEA920BDEE80BF051F8043B40F8043B11
:1029300026E0B1E81800A0E8180021E0B1E838006E
:10294000A0E838001CE0B1E87800A0E8780017E0C3
:10295000B1E8F800A0E8F80012E0B1E8F801A0E85A
:10296000F8010DE0B1E8F803A0E8F80308E0B1E8E9
:10297000F807A0E8F80703E0B1E8F80FA0E8F80FBF
:10298000BDE8F01F02F00302002A08BF00BD11F8E5
:10299000013B00F8013B013A08BF00BD11F8013BC3
:1029A00000F8013B013A08BF00BD11F8013B00F8F7
:1029B000013B00BDAFF30080AFF30080AFF30080B8
:1029C00011F8013B00F8013BA2F1010211F8013BB3
:1029D00000F8013BA2F1010211F8013B00F8013BB4
:1029E000A2F10102282A35DB2DE9F01FB1E8F81F1A
:1029F00020F8023B4FEA134364F31F434FEA1444A9
:102A000065F31F444FEA154566F31F454FEA164626
:102A100067F31F464FEA174768F31F474FEA184806
:102A200069F31F484FEA19496AF31F494FEA1A4AE6
:102A30006BF31F4A4FEA1B4B6CF31F4BA0E8F80FD8
:102A40004FEA1C4C20F802CBA2F12802282ACDDA4A
:102A5000BDE8F01F042A97DB51F8043B20F8023B45
:102A60004FEA134320F8023BA2F10402BAE711F83F
:102A7000013B00F8013BA2F1010211F8013B00F813
:102A8000013BA2F1010211F8013B00F8013BA2F168
:102A90000102042AFFF678AF51F8043B00F8013B2D
:102AA0004FEA132320F8023B4FEA134300F8013B9F
:102AB000A2F10402EDE7000090280000A028000029
:102AC00000B587B00190019B002B03D15021154820
:102AD00005F08AFF019B38330493049B01220021F7
:102AE000184600F0D7F80023059314E0059A134622
:102AF0005B0013449B00049A1344043303930C2299
:102B00000021039800F04EF9039B4FF0FF321A604A
:102B1000059B01330593059B022BE7DD00BF07B042
:102B20005DF804FB7040000000B585B00190019B8A
:102B3000002B03D18621074805F056FF019B38334F
:102B40000393039B1846FEF71DFD00BF05B05DF81B
:102B500004FB00BF7040000082B001900091019B17
:102B600000221A60009B1B68002B06D1009B019A73
:102B70001A60009B019A5A6006E0009B5B68019A0C
:102B80001A60009B019A5A6000BF02B0704784B07F
:102B90000190019B1B680393039B002B0DD0039BAB
:102BA0001A68019B1A60019B1B68002B02D1019BD4
:102BB00000225A60039B00221A60039B184604B04F
:102BC000704784B001900091019B1B680393009BA8
:102BD0001B68002B15D0039B002B12D0009B5B6859
:102BE000039A9A4206D1009B019A5A60019B0022E7
:102BF0001A6003E0039B1A68019B1A60039B002282
:102C00001A60039B184604B0704782B0019000918F
:102C1000019B00225A60009B1A68019B1A60009B6E
:102C20001B68002B06D1009B019A1A60009B019A39
:102C30005A6006E0009B1B68019A5A60009B019A4B
:102C40001A6000BF02B0704784B001900091019BF0
:102C50005B680393019B1B680293039B002B03D1CA
:102C6000009B029A1A6002E0039B029A1A60029B80
:102C7000002B03D1009B039A5A6002E0029B039A47
:102C80005A60019B00221A60019B00225A6000BF1B
:102C900004B0704700B585B0039002910192039B88
:102CA000002B09D0019BB3F5004F05D2019B1AB24E
:102CB000039B1A80002306E0FDF794FE02461623CC
:102CC00013604FF0FF33184605B05DF804FB0000B9
:102CD00000B585B001900091019B002B03D15D21CF
:102CE0000E4805F081FE009B002B04D0002B07DB73
:102CF000022B05DC01E000230CE02623039302E015
:102D00001623039300BFFDF76DFE0246039B13607D
:102D10004FF0FF33184605B05DF804FB8440000017
:102D200000B587B0019000230593019B002B2BD0A9
:102D3000019800F005F9002304931FE0049A13465C
:102D40005B0013449B00019A134404330393039BD9
:102D50001B68002B0FDB039B9B8803F00203002BF7
:102D600009D00121039800F014F80290029B002B77
:102D700001DA029B0593049B01330493049B022B0D
:102D8000DCDD019800F0F8F8059B184607B05DF807
:102D900004FB82B001900B468DF8033000231846E7
:102DA00002B0704786B0039002910192039B059395
:102DB00005E0059B5A1C0592029AD2B21A70019B3B
:102DC0005A1E0192002BF4D1039B184606B070479F
:102DD00084B001900091019B039300BF009A531CA3
:102DE0000093019B591C019112781A701B78002BDB
:102DF000F4D1039B184604B0704710B483B001901F
:102E00000091019B1A78009B591C00911B78D31AE2
:102E1000DBB25CB2002C06D1019B5A1C01921B78DC
:102E2000002B00D0EDE72346184603B010BC7047D6
:102E300000B585B0019000230393019B002B0FD0B8
:102E4000019800F012F8034601331846FFF734FAF0
:102E50000390039B002B03D001990398FFF7B8FF61
:102E6000039B184605B05DF804FB84B00190019BFC
:102E7000039302E0039B01330393039B1B78002B16
:102E8000F8D1039A019BD31A184604B0704700008A
:102E900000B587B0039002910192002305930B4B7C
:102EA0001B781A46039B42FA03F303F00103002B3D
:102EB00006D001AB1A460299039803F061FE059013
:102EC000059B184607B05DF804FB00BF0400002016
:102ED0000EB400B584B0019006AB0293029A059936
:102EE0000198FFF7D5FF0390039B184604B05DF8E7
:102EF00004EB03B07047000084B00190EFF310833F
:102F000072B6ADF80830BDF80830ADF80E300B4B96
:102F10001B788DF80D30019BDAB2084B1A70BDF8A2
:102F20000E30ADF80A30BDF80A3013F0010F00D1B1
:102F300062B69DF80D30184604B0704704000020BA
:102F400000B583B0019009E0FDF74CFD03461B6816
:102F5000042B03D05121074805F046FD019B18467C
:102F6000FEF72CFB0346002BEED100BF03B05DF84B
:102F700004FB00BFA040000000B583B00190019B9E
:102F80001846FEF7E9FB00BF03B05DF804FB82B012
:102F900001900091009B1A68019B1A60009B1B68BE
:102FA000002B02D1009B019A5A60009B019A1A6083
:102FB00000BF02B0704700B585B003900291019246
:102FC000019B1B68002B04D0019B5B68039A9A420B
:102FD00004D101990298FFF7BFFD06E0039B1A6830
:102FE000029B1A60039B029A1A6000BF05B05DF84D
:102FF00004FB82B001900091019B00221A60009BAB
:103000005A68019B5A60009B1B68002B06D1009BED
:10301000019A1A60009B019A5A6006E0009B5B6867
:10302000019A1A60009B019A5A6000BF02B0704773
:103030000FB400B583B005AB0093FEF725FF034640
:103040001033009A0499184600F022FF0190019B6A
:10305000184603B05DF804EB04B070470CB400B53B
:103060008BB001900091009B002B08D0009A03AB1D
:103070000199184600F0BEFE03AB099305E003ABCF
:10308000184600F0F3FE03AB09930DAB0293029ACE
:103090000C99099800F0B8FC0890089B18460BB0F2
:1030A0005DF804EB02B0704700B585B00190009167
:1030B000009A114BA3FB0213D9080B469B000B444B
:1030C0005B00D31A0393009B0B4AA2FB0323DB088C
:1030D0000293029B002B03D002990198FFF7E4FFB3
:1030E000019B1B68039A303211460198984700BF34
:1030F00005B05DF804FB00BFCDCCCCCC00B587B0EB
:103100000390029113468DF8073000238DF8173095
:1031100020238DF8163032E09DF81630043B029AD9
:1031200022FA03F3DBB203F00F038DF815309DF89C
:103130001530002B03D19DF81730002B1AD0012336
:103140008DF817309DF81530092B08D8039B1B68A4
:103150009DF8152030321146039898470AE0039BEA
:103160001B689DF815109DF807200A440A3A11467D
:10317000039898479DF81630043B8DF816309DF85B
:103180001630002BC8D19DF8173083F00103DBB255
:10319000002B04D0039B1B6830210398984700BF85
:1031A00007B05DF804FB00B585B001900091009B6D
:1031B00003F007030393009BDB080293029B002BA1
:1031C00003D002990198FFF7EEFF019B1B68039A59
:1031D000303211460198984700BF05B05DF804FBF6
:1031E00000B585B001900091009B03F001030393AB
:1031F000009B5B080293029B002B03D0029901986D
:10320000FFF7EEFF019B1B68039A303211460198CD
:10321000984700BF05B05DF804FB000000B585B01D
:10322000039001930B468DF80B3013468DF80A304E
:103230009DF80B30583B202B00F2858001A252F8FC
:1032400023F000BFDD3200004733000047330000A9
:103250004733000047330000473300004733000086
:103260004733000047330000473300003D33000080
:1032700047330000C93200004733000047330000E5
:103280004733000047330000C932000047330000D5
:103290004733000047330000473300004733000046
:1032A0001D330000DD3200004733000047330000CB
:1032B0004733000047330000D3320000473300009B
:1032C00047330000DD32000001990398FFF7ECFE60
:1032D0003AE001990398FFF7E7FE35E09DF80A30E0
:1032E00003F00203002B09D0039B1B6830210398D5
:1032F0009847039B1B687821039898479DF80B30EB
:10330000582B05D1412201990398FFF7F7FE1BE0E6
:10331000612201990398FFF7F1FE15E09DF80A304C
:1033200003F00203002B04D0039B1B683021039899
:10333000984701990398FFF736FF05E00199039834
:10334000FFF74EFF00E000BF00BF05B05DF804FBD3
:1033500084B00346029101928DF80F309DF80F3032
:10336000583B202B64D801A252F823F021340000EE
:1033700031340000313400003134000031340000B9
:1033800031340000313400003134000031340000A9
:10339000313400002134000031340000F1330000EA
:1033A0003134000031340000313400003134000089
:1033B000F1330000313400003134000031340000BA
:1033C0003134000031340000213400002134000089
:1033D0003134000031340000313400003134000059
:1033E0003134000031340000313400002134000059
:1033F000019B1B68002B1DDA029B1B7863F07F0387
:10340000DAB2029B1A70029B1B7823F00103DAB236
:10341000029B1A70019B1B685A42019B1A6009E0CB
:10342000029B1B7803F07E03DAB2029B1A7002E063
:1034300000BF00E000BF00BF04B0704700B587B018
:10344000034600928DF807300B468DF8063003AB2B
:10345000184600F00BFD9DF806209DF8071003A804
:10346000009BFFF7DBFE059B184607B05DF804FBE9
:1034700010B588B00390CDE90023DDE900014FF0DD
:103480000A024FF000030DF081FF1C46134607931C
:10349000DDE900014FF00A024FF000030DF076FF66
:1034A00003460C46CDE90434DDE90434234304D05B
:1034B000DDE904230398FFF7DBFF039B1B68079AF2
:1034C000303211460398984700BF08B010BD70B560
:1034D00086B00390CDE9002300238DF817304023F8
:1034E0008DF816303FE09DF81630191FDDE90023F6
:1034F000C1F12006A1F1200022FA01F403FA06F638
:10350000344323FA00F0044323FA01F5E3B203F055
:103510000F038DF815309DF81530002B03D19DF861
:103520001730002B1AD001238DF817309DF8153075
:10353000092B08D8039B1B689DF8152030321146D3
:10354000039898470AE0039B1B689DF815109DF8A7
:1035500028200A440A3A1146039898479DF81630E5
:10356000043B8DF816309DF81630002BBBD19DF82A
:10357000173083F00103DBB2002B04D0039B1B68E0
:1035800030210398984700BF06B070BD10B588B0D1
:103590000390CDE90023009B03F007030793DDE9C7
:1035A00000124FF000034FF00004CB0843EA4273CF
:1035B000D408CDE90434DDE90434234304D0DDE943
:1035C00004230398FFF7E2FF039B1B68079A30323E
:1035D00011460398984700BF08B010BD10B588B0D9
:1035E0000390CDE90023009B03F001030793DDE97D
:1035F000003464084FEA3303CDE90434DDE90434D0
:10360000234304D0DDE904230398FFF7E7FF039B7E
:103610001B68079A303211460398984700BF08B0DC
:1036200010BD000000B585B003900B468DF80B303F
:1036300013468DF80A309DF80B30583B202B00F2D2
:103640008C8001A252F823F0E53600005B370000C1
:103650005B3700005B3700005B3700005B37000022
:103660005B3700005B3700005B3700005B37000012
:103670004F3700005B370000CD3600005B3700009D
:103680005B3700005B3700005B370000CD36000081
:103690005B3700005B3700005B3700005B370000E2
:1036A0005B3700002D3700005B3700005B37000000
:1036B0005B3700005B3700005B370000D936000045
:1036C0005B3700005B370000E5360000DDE90623CC
:1036D0000398FFF7CDFE41E0DDE906230398FFF7ED
:1036E000C7FE3BE09DF80A3003F00203002B09D02F
:1036F000039B1B68302103989847039B1B68782124
:10370000039898479DF80B30582B07D1412300931D
:10371000DDE906230398FFF7DAFE1FE0612300933B
:10372000DDE906230398FFF7D2FE17E09DF80A3083
:1037300003F00203002B04D0039B1B683021039885
:103740009847DDE906230398FFF720FF06E0DDE94F
:1037500006230398FFF742FF00E000BF00BF05B05B
:103760005DF804FB10B485B00346029101928DF818
:103770000F309DF80F30583B202B6CD801A252F827
:1037800023F000BF473800005738000057380000CA
:1037900057380000573800005738000057380000ED
:1037A00057380000573800005738000047380000ED
:1037B000573800000938000057380000573800001B
:1037C000573800005738000009380000573800000B
:1037D00057380000573800005738000057380000AD
:1037E00047380000473800005738000057380000BD
:1037F000573800005738000057380000573800008D
:103800005738000047380000019BD3E90034002BF3
:1038100074F1000321DA029B1B7863F07F03DAB2B4
:10382000029B1A70029B1B7823F00103DAB2029B01
:103830001A70019BD3E900345B4264EB4404019AA3
:10384000C2E9003409E0029B1B7803F07E03DAB280
:10385000029B1A7002E000BF00E000BF00BF05B08D
:1038600010BC704710B58AB0CDE9022303468DF82D
:1038700017300B468DF8163007AB184600F0F6FAF5
:103880009DF816209DF8171007A8DDE90234CDE950
:103890000034FFF7C7FE099B18460AB010BD00B5FB
:1038A00087B0039001930B468DF80B3013468DF8CB
:1038B0000A309DF80B30012B5CD0022B2ED09DF8E6
:1038C0000A3003F08103002B02D0089B01330893D8
:1038D000019A089BD31A059307E0039B1B682021DC
:1038E00003989847059B013B0593059B002BF4DC4F
:1038F0009DF90A30002B05DA039B1B682D210398E4
:1039000098474DE09DF80A3003F00103002B47D0A3
:10391000039B1B682B210398984741E09DF90A30CF
:10392000002B08DA039B1B682D2103989847089BFE
:10393000013308930DE09DF80A3003F00103002BDA
:1039400007D0039B1B682B2103989847089B0133E2
:103950000893019A089BD31A059307E0039B1B6801
:10396000302103989847059B013B0593059B002B4D
:10397000F4DC18E09DF90A30002B05DA039B1B6884
:103980002D21039898470DE09DF80A3003F00103BC
:10399000002B07D0039B1B682B210398984701E05D
:1039A00000BF00E000BF00BF07B05DF804FB00B53A
:1039B00087B0039001930B468DF80B3013468DF8BA
:1039C0000A309DF80B30012B00D019E09DF80A3029
:1039D00003F08103002B02D0089B01330893019A66
:1039E000089BD31A059307E0039B1B6820210398CB
:1039F0009847059B013B0593059B002BF4DC00BF1A
:103A000000BF07B05DF804FB10B594B005900491B9
:103A10000392B5E1049B1B78252B10D0059B1B68F6
:103A2000049A1278114605989847049B1B780A2B34
:103A300040F0A281059B5B68059898479CE1049B38
:103A40000133049300238DF82B3000238DF8473089
:103A50000023129387E0049B1B781946744800F0FA
:103A6000A0FA0346002B40F08480049B1B782D2B8A
:103A700003D101238DF8473072E0049B1B78302B73
:103A800003D102238DF847306AE0049B1B782A2B70
:103A900014D1039B1A1D03921B680F939DF82B30C2
:103AA00003F00403002B5BD10F9B12939DF82B3086
:103AB00043F00803DBB28DF82B3051E0049B1B78F8
:103AC000302B2AD9049B1B78392B26D8049B1B78D2
:103AD000303B1093049B01330493049B1B782F2BE2
:103AE0000FD9049B1B78392B0BD8109A13469B00D7
:103AF00013445B001A46049B1B78303B134410931D
:103B0000E8E79DF82B3003F00403002B01D1109B54
:103B10001293049B013B049322E0049B1B782E2B01
:103B200007D19DF82B3043F00403DBB28DF82B3026
:103B300016E0049B1B782B2B07D19DF82B3043F00C
:103B40000103DBB28DF82B300AE0049B1B78232B9A
:103B500006D19DF82B3043F00203DBB28DF82B30F9
:103B6000049B01330493049B1B78002B7FF473AFF9
:103B700000E000BF049B1B78252B05D1059B1B682B
:103B8000252105989847F8E0049B1B78732B30D1CA
:103B9000039B1A1D03921B681393139B002B01D1E7
:103BA000244B13931398FFF760F903460B939DF88A
:103BB00047100B9B0093129B00220598FFF76FFEA6
:103BC00009E0059B1B68139A1278114605989847DF
:103BD000139B01331393139B1B78002BF1D19DF89A
:103BE00047100B9B0093129B00220598FFF7DFFE06
:103BF000C3E0049B1B78632B0AD1039B1A1D03921D
:103C00001B680C93059B1B680C9905989847B4E0BA
:103C1000049B1B784C2B0FD19DF82B3043F04003B5
:103C2000DBB28DF82B30049B0133049320E000BFFE
:103C3000C0400000B8400000049B1B786C2B17D1DB
:103C40009DF82B3043F02003DBB28DF82B30049B22
:103C500001330493049B1B786C2B09D19DF82B3006
:103C600043F04003DBB28DF82B30049B0133049307
:103C7000049B1B781946474800F093F90346002B34
:103C80007BD09DF82B3003F04003002B41D0049BE8
:103C90001B78702B3DD0039B073323F0070303F100
:103CA00008020392D3E90034CDE90834049B1B7861
:103CB00008AA0DF12B011846FFF754FD049B187854
:103CC0009DF82B10DDE908341A462346FFF7CAFD9C
:103CD0000E909DF82B209DF847100E9B0093129B91
:103CE0000598FFF7DCFD049B19789DF82B20DDE992
:103CF0000834CDE900340598FFF794FC9DF82B209B
:103D00009DF847100E9B0093129B0598FFF74FFEFE
:103D100033E0039B1A1D03921B680793049B1B78D7
:103D200007AA0DF12B011846FFF712FB049B1B7825
:103D30009DF82B10079A1846FFF780FB0D909DF811
:103D40002B209DF847100D9B0093129B0598FFF7C1
:103D5000A6FD049B19789DF82B20079B0598FFF77B
:103D60005DFA9DF82B209DF847100D9B0093129B48
:103D70000598FFF71CFE00E000BF049B013304938D
:103D8000049B1B78002B7FF445AE059B9B6818466F
:103D900014B010BDD440000000B585B00190009172
:103DA000019B0393019B002B03D13821104804F0A1
:103DB0001BFE019B9B681A46039B1B699A4213D208
:103DC000039BDB68019A92681344009AD2B21A707E
:103DD000019B9B685A1C019B9A60039BDB68019ABC
:103DE0009268134400221A7000BF05B05DF804FB0E
:103DF000E040000084B0039002910192039B0B4AC3
:103E00001A60039B0A4A5A60039B00229A60039B34
:103E1000029ADA60019B013B1A46039B1A61039BDD
:103E2000DB6800221A7000BF04B07047993D0000A3
:103E3000353E000082B001900023184602B0704762
:103E400000B583B001900091019B002B03D1342178
:103E5000054804F0C9FD019B9B685A1C019B9A60B0
:103E600000BF03B05DF804FBFC40000082B001908D
:103E7000019B054A1A60019B044A5A60019B00227B
:103E80009A6000BF02B07047413E0000353E00001E
:103E900000B58BB00390029101924FF0FF3309936C
:103EA000039B002B0BD005AB0399184600F03AF8A2
:103EB00005AB019A02991846FFF7A6FD0990099BE8
:103EC00018460BB05DF804FB00B585B00190009179
:103ED000019B0393019B002B03D0039BDB68002B0A
:103EE00003D13B210E4804F07FFD039BDB6819469C
:103EF000009800F071F80290029BB3F1FF3F05D0EB
:103F0000019B9B685A1C019B9A6005E0FCF76AFDC7
:103F100003461B68042BE8D005B05DF804FB00BF26
:103F20001841000082B001900091019B064A1A607E
:103F3000019B064A5A60019B00229A60019B009AED
:103F4000DA6000BF02B07047C93E0000353E000095
:103F500086B0039002910192039B0593029B049308
:103F600016E0059B1A78049B1B789A4202D24FF008
:103F7000FF3313E0059B1A78049B1B789A4201D902
:103F800001230BE0059B01330593049B013304934C
:103F9000019B5A1E0192002BE3D10023184606B064
:103FA000704782B001900091019B002B10D0019BC3
:103FB0001B781A46009B934201D1019B09E0019BAB
:103FC0001B78002B03D0019B01330193EFE700BF67
:103FD0000023184602B0704700B585B001900091EB
:103FE000019BDBB28DF80B300DF10B03009A012120
:103FF000184600F020F80390039B002B15DD019B71
:104000000A2B10D1009B9B7903F00403002B0AD0EC
:1040100001210098FEF7BDFE0390039B002B02DAFE
:104020004FF0FF3303E0019B01E04FF0FF331846F0
:1040300005B05DF804FB00B587B0039002910192D2
:10404000019B1B68029A0399184600F037FD059002
:10405000059B002B06DA019B9B7943F00203DAB241
:10406000019B9A71059B184607B05DF804FB0000A0
:104070006D6973632F6C69625F73747265616D2E15
:104080006300000073656D6170686F72652F736502
:104090006D5F73657470726F746F636F6C2E630005
:1040A0006D6973632F6C69625F73747265616D73A0
:1040B000656D2E6300000000286E756C6C29000091
:1040C0006469757858706F6265456667476C4C73B4
:1040D000632500006469757858706F620000000005
:1040E000737464696F2F6C69625F6D656D6F757451
:1040F00073747265616D2E630000000073746469EF
:104100006F2F6C69625F6E756C6C6F75747374720F
:1041100065616D2E63000000737464696F2F6C69B4
:10412000625F7374646F757473747265616D2E630E
:10413000000008B500F0CCF900BF08BD00B583B0A1
:10414000019009E0FCF74EFC03461B68042B03D0EA
:104150004821074804F048FC019B1846FDF72EFA59
:104160000346002BEED100BF03B05DF804FB00BF97
:104170003458000000B585B00190019B9B68029304
:1041800000230393029B002B1AD0029BDB68002BB9
:104190000AD0029BDB685B68002B05D0029BDB68C2
:1041A0005B68019898470390029800F02DFA019BF4
:1041B00000221A60019B00225A60019B00229A6033
:1041C000039B184605B05DF804FB00BF7047000074
:1041D00000B583B00190019B002B03D196210648C6
:1041E00004F002FC019B012200211846FEF752FD5B
:1041F00000BF03B05DF804FB3458000000B585B083
:104200000190019B002B03D1A9210E4804F0ECFB87
:10421000002303930AE0039B1B01019A1344043318
:104220001846FFF7A7FF039B01330393039B022B61
:10423000F1DD019B1846FDF7A5F900BF05B05DF85B
:1042400004FB00BF3458000000B587B00190009116
:10425000019B002B06D0019B9B68002B02D0009B8A
:10426000002B02D10923059366E0FCF7EBFF0390D6
:10427000039B002B02D00398FFF760FF0098FFF725
:1042800079FF0490049B002B49DB019B9B68029300
:10429000029800F0A1F9019B1A68009B1A60019B2B
:1042A0005A68009B5A60009B029A9A60029BDB68E6
:1042B000002B1BD0029BDB681B68002B16D0029BD7
:1042C0005B8903F00703022B07D1029BDB68DB69E4
:1042D000009901989847049005E0029BDB681B68F1
:1042E000009898470490049B002B08DB039B002B4D
:1042F00003D0039B1846FDF72FFA002323E000BFED
:10430000009B9B68184600F07FF9009B00221A6012
:10431000009B00225A60009B00229A6000E000BFD0
:10432000049B5B420593039B002B04D0039B184620
:10433000FDF712FA00E000BFFCF754FB0246059BB4
:1043400013604FF0FF33184607B05DF804FB000020
:1043500000B587B00390029101920093FCF772FFC1
:104360000490049B002B04D140F23F11214804F03B
:104370003BFB0498FFF7E2FE009B05932CE0049AB8
:10438000059B1B0113440C331B68002B21D1049A9D
:10439000059B1B0113440433029A1A60049A059B7F
:1043A0001B0113440833019A1A60049A059B1B01F0
:1043B00013440C33039A1A60049A059B1B0113449F
:1043C000103300221A60049B1846FDF7C5F9059BBF
:1043D0000BE0059B01330593059B022BCFDD049B6E
:1043E0001846FDF7B9F94FF0FF33184607B05DF8EE
:1043F00004FB00BF3458000000B585B00190FCF705
:1044000021FF0390039B002B04D14FF4B471144897
:1044100004F0EAFA019B002B0ADB019B022B07DC6C
:10442000039A019B1B0113440C331B68002B02D120
:104430006FF0080310E00398FFF780FE019B1B015B
:10444000039A134404331846FFF794FE0290039B2B
:104450001846FDF781F9029B184605B05DF804FB8C
:104460003458000000B585B00190FCF7EBFE0390D6
:10447000039B002B04D140F28711144804F0B4FAD6
:10448000019B002B1EDB019B022B1BDC0398FFF71B
:1044900055FE039A019B1B011344043300221A604A
:1044A000039A019B1B011344083300221A60039AEC
:1044B000019B1B0113440C3300221A60039B184616
:1044C000FDF74AF900BF05B05DF804FB3458000061
:1044D00008B5012200210848FEF7DCFB064B4FF629
:1044E000FF725A80044B00229A80044B002B01D0AB
:1044F000FFF76BFE00BF08BDE4010020CB410000C8
:1045000000B583B0FDF71AFA0346ADF806301A4B32
:10451000B3F90230BDF906209A421BD1164BB3F90C
:1045200004309BB201339BB21AB2134B9A80124BE8
:10453000B3F90430002B1ADC8721104804F054FA38
:10454000FCF750FA03461B68042B03D094210B4858
:1045500004F04AFA0848FDF731F80346002BEFD182
:10456000054ABDF806305380034B01229A8000BFF4
:1045700003B05DF804FB00BFE401002048580000D0
:1045800010B5134BB3F90240FDF7D8F903469C422E
:1045900003D0A8210F4804F027FA0D4BB3F90430DB
:1045A000012B09DD0A4BB3F904309BB2013B9BB2EE
:1045B0001AB2074B9A8009E0054B4FF6FF725A80FA
:1045C000034B00229A800248FDF7C6F800BF10BDD9
:1045D000E40100204858000000B583B00190019B21
:1045E000002B0CD0FFF78CFF019BB3F908309BB276
:1045F00001339BB21AB2019B1A81FFF7C1FF00BFC2
:1046000003B05DF804FB000000B583B00190019B8E
:10461000002B2AD0FFF774FF019BB3F90830002B61
:1046200008D0019BB3F908309BB2013B9BB21AB290
:10463000019B1A81019BB3F90830002B13DC019B0D
:104640005B8903F00803002B0DD0FFF799FF019B56
:104650001B68002B03D05621064804F0C5F90198C9
:1046600000F004FC01E0FFF78BFF00BF03B05DF832
:1046700004FB00BF5C58000000B583B0019009E066
:10468000FCF7B0F903461B68042B03D0452107480B
:1046900004F0AAF9019B1846FCF790FF0346002B93
:1046A000EED100BF03B05DF804FB00BF74580000FA
:1046B00000B585B001900091019B002B02DB019BAE
:1046C000022B02DD6FF008033EE0FCF7BBFD039018
:1046D000039B002B03D17F211D4804F085F903982B
:1046E000FFF7CAFF019B1B01039A13440433029393
:1046F000029B9B68002B06D1039B1846FDF72CF804
:104700006FF0080320E0029B1A68009B1A60029B6E
:104710005A68009B5A60029B9A68009B9A60029BB1
:10472000DA68009BDA60029B00221A60029B00227A
:104730005A60029B00229A60029B0022DA60039B6F
:104740001846FDF709F80023184605B05DF804FB8C
:104750007458000000B585B0019000230393019BBD
:10476000002B03D1BC21164804F03EF9019B9B6845
:104770000293029B002B1DD0029BDB68002B0AD00A
:10478000029BDB685B68002B05D0029BDB685B68E3
:104790000198984703900298FFF736FF019B00228B
:1047A0001A60019B00225A60019B00229A60019BC3
:1047B0000022DA60039B184605B05DF804FB00BFD9
:1047C0007458000000B585B00190019B022B02D9FE
:1047D000092303930CE00198FFF70EFE0290029B61
:1047E000002B03DA029B5B42039301E0002306E007
:1047F000FCF7F8F80246039B13604FF0FF331846AE
:1048000005B05DF804FB00B585B0019000910198FA
:1048100000F029F80390009800F025F80290039B1F
:10482000002B02D0029B002B02D14FF0FF3316E089
:10483000039B9B68002B07D1FCF7D4F802460923A1
:1048400013604FF0FF330AE0019A009B9A4201D1B6
:10485000019B04E002990398FFF7F6FC0346184613
:1048600005B05DF804FB00B585B00190019B022BFB
:1048700002D9092303930EE0FCF7E4FC0290029BAB
:10488000002B02D10B23039305E0019B1B01029A2D
:104890001344043305E0FCF7A5F80246039B1360BC
:1048A0000023184605B05DF804FB82B0019000912A
:1048B000009B03F00103002B04D0019BDB689B6885
:1048C000002B09D0009B03F00203002B07D0019BB3
:1048D000DB68DB68002B02D16FF00C0300E00023E3
:1048E000184602B0704700000EB410B58DB00190AC
:1048F0004FF4DB730A93019B02930023039300237D
:104900000493002305930023069302AB184600F09E
:1049100085FA0B900B9B002B03DA0B9B5B420B93EE
:104920007EE0039B0993099B002B03D18D21444812
:1049300004F05AF8099B5B8903F00703012B0FD1A0
:104940000998FFF761FE0F99019800F001FA0890AD
:10495000089B002B02DA089B0B9361E0089B68E040
:10496000099B5B8903F00703002B05D0099B5B893A
:1049700003F00703022B03D1099BDB68002B02D154
:1049800006230B9349E00F990998FFF78EFF0B90D0
:104990000B9B002B03DA0B9B5B420B933DE0002348
:1049A00000220F990998FFF7D3FC0890089B002B71
:1049B00002DA18230B9330E00898FFF754FF0790B2
:1049C000079B002B32D000230B93099BDB681B68ED
:1049D000002B15D0099B5B8903F00703022B09D13B
:1049E000099BDB681C6806990A9B0F9A0798A047E9
:1049F0000B9005E0099BDB681B68079898470B90B4
:104A00000B9B002B07DA0B9B5B420B9300BF0898B4
:104A1000FFF728FD01E0089B0BE00998FFF7F4FD84
:104A2000FBF7E0FF02460B9B136000E000BF4FF076
:104A3000FF3318460DB0BDE8104003B0704700BF0B
:104A40008C58000000B589B0039002910192039B3D
:104A50001B6803F00203002B02D10923079322E015
:104A6000039B9B680693069B002B08D0069BDB6884
:104A7000002B04D0069BDB68DB68002B02D10923E6
:104A8000079310E0069BDB68DB68019A02990398A4
:104A900098470590059B002B03DA059B5B42079323
:104AA00001E0059B06E0FBF79DFF0246079B1360B4
:104AB0004FF0FF33184609B05DF804FB00B587B02E
:104AC000039002910192039B022B08D9FBF78AFF06
:104AD0000246092313606FF00103059310E0039869
:104AE000FFF7C1FE0490049B002B03D14FF0FF336E
:104AF000059305E0019A02990498FFF7A3FF05903A
:104B0000059B184607B05DF804FB000000B587B0B0
:104B1000039002910192039B002B03D0039B9B689F
:104B2000002B03D14721124803F05EFF0298FFF7E4
:104B30009AFE0590059B002B02D14FF0FF3313E046
:104B4000059B9B680493049B002B02D16FF001032B
:104B50000AE001990498FFF7A8FE0346002B02D053
:104B60006FF00C0300E00023184607B05DF804FB6B
:104B70009C58000000B58BB0039002910192002375
:104B80000993039B002B02DA092309935BE0019B45
:104B9000002B02D1FCF7BCFC0190019B002B03D041
:104BA000019B9B68002B03D19A212D4803F01CFF29
:104BB000039B022B02D90923099344E0029A03992B
:104BC0000198FFF7A3FF0790079B002B03DA079BD1
:104BD0005B42099337E0019B9B6838330693069B41
:104BE0001846FCF7EBFC0790079B002B31D1002304
:104BF00008931FE0089A13465B0013449B00069A33
:104C0000134404330593059B1B68002B0FDA059BA7
:104C10000022DA71059B039A1A60029B9AB2059BE7
:104C20009A80069B1846FCF797FD059B13E0089BAE
:104C300001330893089B022BDCDD17230993069BA5
:104C40001846FCF789FDFBF7CDFE0246099B136071
:104C500000E000BF002318460BB05DF804FB00BF66
:104C60009C58000000B587B0039002910192009318
:104C7000FFF746FC04AB1946039800F07FF9059056
:104C8000059B002B0EDB049B5A89049B22F0070234
:104C900092B25A81049B029ADA60049B009A1A61CC
:104CA00000230593FFF76CFC059B184607B05DF8E1
:104CB00004FB000000B58FB009E0FBF793FE03464C
:104CC0001B68042B03D069211D4803F08DFE1D488D
:104CD000FCF774FC0346002BEFDB1B4B1B68013316
:104CE000194A1360184B1B680D931648FCF734FDE6
:104CF0000D9B23F07F430D9301A80D9B134A1021B8
:104D0000FEF7ACF905AA01AB1146184600F00AFB04
:104D10000C900C9B002BDADAFBF764FE03461B6851
:104D2000022B03D07B21064803F05EFE01AB184640
:104D3000FEF77EF8034618460FB05DF804FB00BF8F
:104D4000AC58000008000020EC010020C45800000E
:104D500000B587B001900091019B002B03D1A921E0
:104D60002D4803F041FE009B03F03C03002B03D0D1
:104D7000AA21294803F038FEFFF79CFF0490049B0A
:104D8000002B02D16FF00B0341E0009B03F0020304
:104D9000002B0CBF012300238DF80F309DF80F303E
:104DA0001A460499019801F0DDFC0590059B002B43
:104DB00028DB009B23F03C03009300990498FFF745
:104DC00093FD0290029B002B0ADAFBF70BFE0346D1
:104DD0001B685B42059300BF049800F039FB12E0AA
:104DE000049800F035FB0590059B002B05DAFBF7D6
:104DF000F9FD03461B685B4205930498FDF74EFAE4
:104E0000029B04E000BF0498FDF748FA059B184692
:104E100007B05DF804FB00BFAC58000000B585B0DA
:104E20000190FFF76DFB019800F0DCF90390039B04
:104E3000002B12DB019B5B680293029B002B03D1CA
:104E40005021094803F0D0FD029BB3F908309BB212
:104E500001339BB21AB2029B1A81FFF791FB039BAD
:104E6000184605B05DF804FBD458000000B583B0C7
:104E70000190019B002B0CD0019B1B681846FFF78B
:104E8000F5FF019B5B681846FFF7F0FF0198FDF7FF
:104E900005FA00BF03B05DF804FB84B00190019BEC
:104EA000039302E0039B01330393039B1B78002BC6
:104EB00003D0039B1B782F2BF4D1039A019BD31AA9
:104EC000184604B0704782B00190009107E0009A44
:104ED000531C0093019B591C019112781A70009B7E
:104EE0001B78002B03D0009B1B782F2BEFD1019B4D
:104EF00000221A7000BF02B0704700B585B0019063
:104F00000198FFF7CAFF0390039B18331846FDF77B
:104F1000E1F90290029B002B05D0029B143301990A
:104F20001846FFF7D0FF029B184605B05DF804FB5A
:104F300084B0039002910192029B002B07D0029B48
:104F40001A68039B1A60029B039A1A6011E0019B86
:104F5000002B07D0019B5A68039B1A60019B039AA0
:104F60005A6006E0044B1A68039B1A60024A039BCE
:104F7000136000BF04B07047F001002000B58FB08F
:104F800001900091019B002B02D0009B002B03D1CC
:104F9000AE21314803F028FD009B00221A60019BDE
:104FA0001B78002B03D0019B1B782F2B02D06FF0B6
:104FB00015034DE0019B0393002304930023059305
:104FC000002306930023079303AB184600F00AF969
:104FD0000A900A9B002B03DB6FF010030A9336E064
:104FE000039B0B93059B0D93069B0C930B9800F072
:104FF0000FF90990099B1B78002B12D00B98FFF733
:105000007CFF0890089B002B1DD00C9A0D990898E6
:10501000FFF78EFF099B0B9300230D93089B0C93C6
:10502000E4E70B98FFF769FF0890089B002B0AD074
:105030000C9A0D990898FFF77BFF009B089A1A605D
:1050400000230A9303E06FF00B030A9300BF0A9B4F
:1050500018460FB05DF804FBEC58000084B00190D6
:105060000091009B14330393039B002B01D1012378
:1050700038E0019B002B02D14FF0FF3332E0039B5D
:105080001B78002B0BD1019B1B78002B03D0019BBD
:105090001B782F2B01D1002324E0012322E0019B68
:1050A0001B78002B03D0019B1B782F2B02D14FF0D4
:1050B000FF3317E0019B1A78039B1B789A4201D9B2
:1050C00001230FE0019B1A78039B1B789A4202D2BE
:1050D0004FF0FF3306E0019B01330193039B013343
:1050E0000393CCE7184604B07047000000B58BB0BE
:1050F00001903A4B1B680893002307930023069303
:10510000002305936FF001030493019B002B03D050
:10511000019B1B68002B03D1FA21314803F064FC8A
:10512000019B1B680993099B1B782F2B05D06FF0FF
:1051300015034EE0099B01330993099B1B782F2B24
:10514000F8D0099B1B78002B30D16FF0250340E08D
:1051500008990998FFF782FF0390039B002B02DA5E
:105160000023089325E0039B002B05DD089B079394
:10517000089B1B68089319E0099800F049F809900A
:10518000099B1B78002B05D0089B5B8903F0070364
:10519000022B04D1099B05930023049309E0089B8B
:1051A000069300230793089B5B680893089B002BDA
:1051B000CED1019B099A1A60019B089A5A60019B03
:1051C000079A9A60019B069ADA60019B059A1A6118
:1051D000049B18460BB05DF804FB00BFF0010020F3
:1051E0000459000000B585B00190019B002B04D14B
:1051F00040F2D511054803F0F7FB0198FFF776FF61
:105200000390039B184605B05DF804FB04590000A9
:1052100082B0019002E0019B01330193019B1B7856
:10522000002B07D0019B1B782F2BF4D102E0019BB0
:1052300001330193019B1B782F2BF8D0019B18465B
:1052400002B0704700B583B001901C220021019884
:10525000FDF7A8FD019B42F224121A6000231846B4
:1052600003B05DF804FB000000B58BB00190009125
:10527000019B0393002304930023059300230693CB
:105280000023079303AB1846FFF7C8FD0990099B5D
:10529000002B03DA099B5B42099335E0049B0893DA
:1052A000089B002B03D185211D4803F09DFB089B23
:1052B0005B8903F00703022B11D1089BDB68002BED
:1052C00012D0089BDB681B6D002B0DD0089BDB68A0
:1052D0001B6D0799009A08989847099004E0009977
:1052E000089800F053F80990099B002B07DA099BF6
:1052F0005B42099300BF0898FFF786F904E008981D
:10530000FFF782F9002306E0FBF76CFB0246099BDE
:1053100013604FF0FF3318460BB05DF804FB00BF7D
:105320001C59000000B585B001900091019B002B35
:1053300002D0009B002B02D10E23039318E0019BA7
:105340001B78002B02D10223039311E00E49019830
:10535000FDF753FD0346002B04D10098FFF772FFC1
:1053600003460CE000990198FFF77EFF034606E034
:10537000FBF738FB0246039B13604FF0FF331846E0
:1053800005B05DF804FB00BF2C59000000B583B0E8
:1053900001900091019B002B02D0009B002B04D1B7
:1053A0004FF48771294803F01FFB1C22002100984D
:1053B000FDF7F8FC019B5B8903F00403002B40D14F
:1053C000019BDB68002B34D0019BDB689B68002BC2
:1053D00003D0009B4FF492721A60019BDB68DB687C
:1053E000002B05D0009B1B6843F09202009B1A60C3
:1053F000019B5B8903F00703022B06D1009B1B680E
:1054000043F40052009B1A601BE0019B5B8903F090
:105410000703012B06D1009B1B6843F44052009BFD
:105420001A600EE0009B1B6843F48052009B1A60D8
:1054300007E0009B1B6843F4045343F02403009AE5
:1054400013600023184603B05DF804FB1C590000EC
:1054500000B58BB00190019B0293002303930023BE
:105460000493002305930023069302AB1846FFF72D
:10547000D5FC0890089B002B03DA089B5B4209933C
:105480008EE0039B0793079B002B03D16D214A48B5
:1054900003F0AAFA079B5B8903F00703022B1AD1DA
:1054A000079BDB68002B16D0079BDB681B6C002B6F
:1054B0000ED0079BDB681B6C069A1146079898472D
:1054C0000890089B002B62DA089B5B42099364E01A
:1054D0002623099361E0079B5B8903F00403002BFB
:1054E00052D1079BDB68002B4BD0FFF709F8079BD5
:1054F0005B68002B04D027230993FFF741F84CE0A9
:10550000079B5B8903F00703002B11D1079BDB6826
:105510009B69002B0CD0079BDB689B690798984719
:105520000890089B002B1BDA089B5B42099334E030
:10553000079B5B8903F00703012B11D1079BDB68F5
:105540009B69002B0CD0079BDB689B6907989847E9
:105550000890089B002B03DA089B5B4209931CE030
:10556000019800F075F80890FFF70AF8089B002BE7
:105570000EDA089B13F1100F0AD0089B5B420993C7
:105580000BE01523099308E00623099305E000BF0B
:105590000798FFF739F8002309E00798FFF734F878
:1055A000FBF720FA0246099B13604FF0FF331846C1
:1055B0000BB05DF804FB00BF3059000000B58BB0A4
:1055C000019000230993019B002B03D0019B1B78C2
:1055D0002F2B01D0002332E0019B0393002304937F
:1055E00000230593002306930023079303AB18467B
:1055F000FFF7F8FD0890089B002B1FDB049B099325
:10560000099B002B03D15C210F4803F0EDF9059BAA
:10561000002B04D0059B099A12681A600BE0069BC8
:10562000002B04D0069B099A12685A6003E0099B7C
:105630001B68064A1360099B00221A60099B1846E2
:105640000BB05DF804FB00BF40590000F0010020E2
:1056500000B585B001900198FFF7B0FF0390039B60
:10566000002B1BD0039BB3F90830002B09D0039B00
:105670005B8943F008039AB2039B5A816FF00F03D2
:105680000EE0039B1B68002B03D0A821064803F003
:10569000ABF90398FFF7EAFB002301E06FF0010389
:1056A000184605B05DF804FB4059000000B587B00E
:1056B000039002910192019B002B03D16FF015031F
:1056C000059324E004AB1A460299039800F052F8BF
:1056D0000590059B002B19DB049BDB681B68002BE6
:1056E00009D0049BDB681B68049A10469847059014
:1056F000059B002B04DB049A019B1A60002307E042
:1057000000BF049B1846FEF77FFF00E000BF059B2B
:10571000184607B05DF804FB00B585B00190002382
:105720000393019B002B03D0019BDB68002B03D16B
:105730006FF01503039317E0019B5B8903F00703E8
:10574000012B03D06FF00E0303930DE0019BDB6888
:105750005B68002B05D0019BDB685B68019898476C
:1057600003900198FEF750FF039B184605B05DF8C3
:1057700004FB000000B58DB003900291019200235C
:105780000B93039B002B02D0019B002B02D16FF0E7
:10579000150348E0039B059300230693002307931A
:1057A000002308930023099305AB1846FFF736FB47
:1057B0000B900B9B002B03DA6FF001030B9331E08E
:1057C000069B0A930A9B002B03D16F21184803F014
:1057D0000BF90A9B5B8903F00703012B03D06FF0E1
:1057E0000E030B931BE00A9BDB68002B0ED00A9B79
:1057F000DB689B68002B09D00A9BDB68DB68002B09
:1058000008D1029B03F00103002B03D16FF00C03BE
:105810000B9304E0019B0A9A1A60002303E00A98A4
:10582000FEF7F2FE0B9B18460DB05DF804FB00BFBF
:1058300058590000696E6F64652F66735F66696C06
:1058400065732E6300000000696E6F64652F6673D8
:105850005F696E6F64652E6300000000696E6F649F
:10586000652F66735F696E6F646572656C656173E1
:10587000652E6300696E6F64652F66735F66696C81
:10588000656465746163682E630000007666732F3B
:1058900066735F6F70656E2E630000007666732F0F
:1058A00066735F66646F70656E2E630064726976FE
:1058B00065722F66735F626C6F636B70726F78795D
:1058C0002E6300002F6465762F746D702530366C62
:1058D00078000000696E6F64652F66735F696E6F94
:1058E000646566696E642E6300000000696E6F6413
:1058F000652F66735F696E6F646572657365727636
:10590000652E6300696E6F64652F66735F696E6FE5
:1059100064657365617263682E6300007666732F39
:1059200066735F737461742E630000002F000000C3
:105930007666732F66735F756E6C696E6B2E63008F
:10594000696E6F64652F66735F696E6F64657265FB
:105950006D6F76652E6300006472697665722F66DE
:10596000735F66696E64626C6F636B64726976659F
:10597000722E630000B583B001900B468DF80330A2
:1059800010E0FBF72FF803461B68042B03D081219E
:105990000A4803F029F89DF80330002B02D06FF07D
:1059A000030306E00198FBF709FE0346002BE8D14C
:1059B0000023184603B05DF804FB00BFAC72000082
:1059C00000B589B00390029113468DF80730039B10
:1059D000DB891BB201330793039BB3F912301A46DC
:1059E000079B934201DB00230793039B1B8A1BB297
:1059F0001A46079B93420ED0039B5B69039AD28998
:105A000012B21344029AD2B21A70079B1AB2039BC5
:105A1000DA8100233EE09DF80730002B38D0EFF309
:105A2000108372B6ADF81430BDF81430ADF81630EE
:105A3000039B1B8A1BB21A46079B934202D000238A
:105A4000069315E0039B01225A70039B5B6A5B6A15
:105A5000012103989847039B063301211846FFF75D
:105A600089FF0690039B5B6A5B6A00210398984755
:105A7000BDF81630ADF81230BDF8123013F0010F3A
:105A800000D162B6069B002BAFDA6FF0030301E092
:105A90006FF00A03184609B05DF804FB00B587B043
:105AA000039002910192019B059310E0029B5A1C06
:105AB00002921B780493049B0A2B02D10D2002F062
:105AC0003BFC049802F038FC019B013B0193019BD5
:105AD000002BEBD1059B184607B05DF804FB00B521
